:0200000068296D
:06000600000000000800EC
:0E000C00213083120313FD00FD0B0A280800AB
:10001A000F3083120313FC004730FD00FD0B132839
:0A002A00FC0B132800000000080082
:1000340083120313E51B2028871121288715651BCC
:100044002528071126280715E51A2A2887102B28A2
:100054008714651A2F2807103028071447183428E6
:10006400071635280712871603208712E5193C283E
:1000740087113D288715651941280711422807155E
:10008400E518462887104728871465184B28071059
:100094004C280714471850280716512807128716AA
:1000A40003208712471C58280D20592806200800D1
:1000B400063083120313FD00FD0B5E2800000800C8
:1000C4008312031347106008E5001A204714080040
:0E00D4008312031345088A00440882000800C6
:1000E20083120313E001E201E3011030E400043063
:1000F20063020318A228F03088008030F0007008F4
:10010200083E84006409F000700880000320032088
:100112000F300805F0007008E100700803199C28F0
:100122006208E000610803199A28E10CE113E00A71
:1001320093280430E300E40D64100430E207E30A7C
:0801420078286008F0000800B5
:10014A0071207008DC000F300805F0000319AF2891
:0A015A005A20A8285C08F0000800F5
:1001640083120313DD015D085C0784000008031992
:10017400C3285D085C0784000008E0006220DD0AF3
:04018400B528080092
:10018800D628803083120313DC00E928C030DC0055
:10019800E9289430DC00E928D430DC00E9288030F4
:1001A800DC00E928831203135C08013A0319C52807
:1001B8005C08023A0319CA285C08033A0319CD28D7
:1001C8005C08043A0319D028D3285D03F0005C08C2
:1001D800F0077008DC007008E5001A204710DF01FE
:1001E8005F085E0784000008031902295F085E079C
:1001F80084000008E0006220DF0AF42847140800A1
:10020800803083120313F0007008083E8400FF302A
:04021800800008005A
:10021C006A208A110A128000840AC40A0319C50ACA
:08022C00F003031D0E29080078
:1002340083160313871207120710871007118711FB
:1002440083128712071287110711871007100D20D8
:100254000D200D20871407148716032087120D2004
:100264008716032087120D208716032087120D207E
:1002740007108716032087120D2087160320871284
:10028400871087158716032087120D2087110714FE
:1002940087160320871207108716032087120D2064
:1002A40087160320871207148716032087120D2050
:1002B400071087160320871287150715871407145C
:0C02C4008716032087120D204714080045
:1002D0005A22831603138613861083128610042174
:1002E0001A210130E5001A200C30E5001A200130F7
:1002F000DC000130DD002030DE00C420C601A52076
:100300007008C600700803197F29AA293130C60079
:10031000DA293230C600DA293330C600DA2934301F
:10032000C600DA293530C600DA293630C600DA29A7
:100330003730C600DA293830C600DA293930C6002D
:10034000DA292A30C600DA293030C600DA2923300B
:10035000C600DA294608013A031986294608023AF6
:10036000031989294608033A03198C294608053AD6
:1003700003198F294608063A031992294608073AB5
:10038000031995294608093A0319982946080A3A93
:1003900003199B2946080B3A03199E2946080D3A72
:1003A0000319A12946080E3A0319A42946080F3A51
:1003B0000319A72946082A3A031DDF292F2A4608D0
:1003C000233A031D242AAC01AD0180302D06F00034
:1003D00080307002031DEE2904302C020318092A14
:1003E0002C08483E84000008F1002C08303E8400B0
:1003F000710800060319052A0130E5001A2034307F
:10040000DC00B220C201C301092AAC0A0319AD0AFB
:10041000E529420843040319232A0130E5001A2084
:100420003A30DC00B22086170B30FB002630FC008F
:100430005D30FD00FD0B1A2AFC0B1A2AFB0B1A2A51
:100440000000000086132F2A2E08483E840046082C
:100450008000AE0A0319AF0A2A30E00062207E292C
:02046000302A40
:1004B40020308400243083120313F0003630C4004B
:0804C4000230C5000E21080002
:10046C0045346E3474346534723420345034613411
:08047C00733473343A34003488
:04048400003400340C
:040488000034003408
:08048C003134323433343434CE
:0C049400573452344F344E344734003497
:1004A00043344F345234523445344334543400349A
:0404B00001340034DF
:02400E004A2F37
:00000001FF
